{
  "address": "0x12dB87BFB2c620Bd60f1364cDd8AC16cB0270Da7",
  "abi": [
    {
      "inputs": [
        {
          "internalType": "address",
          "name": "_usdeTokenAddress",
          "type": "address"
        }
      ],
      "stateMutability": "nonpayable",
      "type": "constructor"
    },
    {
      "anonymous": false,
      "inputs": [
        {
          "indexed": true,
          "internalType": "uint256",
          "name": "resourceId",
          "type": "uint256"
        },
        {
          "indexed": true,
          "internalType": "address",
          "name": "contributor",
          "type": "address"
        },
        {
          "indexed": false,
          "internalType": "string",
          "name": "contentHash",
          "type": "string"
        }
      ],
      "name": "ResourceShared",
      "type": "event"
    },
    {
      "anonymous": false,
      "inputs": [
        {
          "indexed": true,
          "internalType": "uint256",
          "name": "resourceId",
          "type": "uint256"
        },
        {
          "indexed": true,
          "internalType": "address",
          "name": "tipper",
          "type": "address"
        },
        {
          "indexed": true,
          "internalType": "address",
          "name": "contributor",
          "type": "address"
        },
        {
          "indexed": false,
          "internalType": "uint256",
          "name": "tipAmount",
          "type": "uint256"
        }
      ],
      "name": "ResourceTipped",
      "type": "event"
    },
    {
      "anonymous": false,
      "inputs": [
        {
          "indexed": true,
          "internalType": "uint256",
          "name": "resourceId",
          "type": "uint256"
        },
        {
          "indexed": true,
          "internalType": "address",
          "name": "viewer",
          "type": "address"
        }
      ],
      "name": "ResourceViewed",
      "type": "event"
    },
    {
      "inputs": [],
      "name": "MIN_TIP_AMOUNT",
      "outputs": [
        {
          "internalType": "uint256",
          "name": "",
          "type": "uint256"
        }
      ],
      "stateMutability": "view",
      "type": "function"
    },
    {
      "inputs": [],
      "name": "USDE_PURCHASE_LINK",
      "outputs": [
        {
          "internalType": "string",
          "name": "",
          "type": "string"
        }
      ],
      "stateMutability": "view",
      "type": "function"
    },
    {
      "inputs": [
        {
          "internalType": "uint8",
          "name": "_limit",
          "type": "uint8"
        }
      ],
      "name": "getTopContributors",
      "outputs": [
        {
          "internalType": "address[]",
          "name": "contributors",
          "type": "address[]"
        },
        {
          "internalType": "uint256[]",
          "name": "tips",
          "type": "uint256[]"
        }
      ],
      "stateMutability": "view",
      "type": "function"
    },
    {
      "inputs": [],
      "name": "getTotalResources",
      "outputs": [
        {
          "internalType": "uint256",
          "name": "",
          "type": "uint256"
        }
      ],
      "stateMutability": "view",
      "type": "function"
    },
    {
      "inputs": [],
      "name": "getUSDePurchaseLink",
      "outputs": [
        {
          "internalType": "string",
          "name": "",
          "type": "string"
        }
      ],
      "stateMutability": "pure",
      "type": "function"
    },
    {
      "inputs": [
        {
          "internalType": "address",
          "name": "_user",
          "type": "address"
        }
      ],
      "name": "getUserResources",
      "outputs": [
        {
          "internalType": "uint256[]",
          "name": "",
          "type": "uint256[]"
        }
      ],
      "stateMutability": "view",
      "type": "function"
    },
    {
      "inputs": [
        {
          "internalType": "uint256",
          "name": "",
          "type": "uint256"
        }
      ],
      "name": "resources",
      "outputs": [
        {
          "internalType": "address",
          "name": "contributor",
          "type": "address"
        },
        {
          "internalType": "string",
          "name": "contentHash",
          "type": "string"
        },
        {
          "internalType": "uint256",
          "name": "tipsReceived",
          "type": "uint256"
        },
        {
          "internalType": "uint256",
          "name": "createdAt",
          "type": "uint256"
        },
        {
          "internalType": "uint256",
          "name": "viewCount",
          "type": "uint256"
        }
      ],
      "stateMutability": "view",
      "type": "function"
    },
    {
      "inputs": [
        {
          "internalType": "string",
          "name": "_contentHash",
          "type": "string"
        }
      ],
      "name": "shareResource",
      "outputs": [],
      "stateMutability": "nonpayable",
      "type": "function"
    },
    {
      "inputs": [
        {
          "internalType": "uint256",
          "name": "_resourceId",
          "type": "uint256"
        },
        {
          "internalType": "uint256",
          "name": "_amount",
          "type": "uint256"
        }
      ],
      "name": "tipResource",
      "outputs": [],
      "stateMutability": "nonpayable",
      "type": "function"
    },
    {
      "inputs": [
        {
          "internalType": "address",
          "name": "",
          "type": "address"
        }
      ],
      "name": "totalTipsReceived",
      "outputs": [
        {
          "internalType": "uint256",
          "name": "",
          "type": "uint256"
        }
      ],
      "stateMutability": "view",
      "type": "function"
    },
    {
      "inputs": [],
      "name": "usdeToken",
      "outputs": [
        {
          "internalType": "contract IERC20",
          "name": "",
          "type": "address"
        }
      ],
      "stateMutability": "view",
      "type": "function"
    },
    {
      "inputs": [
        {
          "internalType": "address",
          "name": "",
          "type": "address"
        },
        {
          "internalType": "uint256",
          "name": "",
          "type": "uint256"
        }
      ],
      "name": "userResources",
      "outputs": [
        {
          "internalType": "uint256",
          "name": "",
          "type": "uint256"
        }
      ],
      "stateMutability": "view",
      "type": "function"
    },
    {
      "inputs": [
        {
          "internalType": "uint256",
          "name": "_resourceId",
          "type": "uint256"
        }
      ],
      "name": "viewResource",
      "outputs": [],
      "stateMutability": "nonpayable",
      "type": "function"
    }
  ],
  "transactionHash": "0xfa428f9ad78c61b6a9ab89b50badf98f353f5993bedc8e599615475a95eea1b8",
  "args": [
    "0xf805ce4F96e0EdD6f0b6cd4be22B34b92373d696"
  ],
  "numDeployments": 1,
  "solcInputHash": "4dce3c260fdf3c966dedb4e78f2492b6",
  "bytecode": "0x60a060405234801561001057600080fd5b5060405161111a38038061111a83398101604081905261002f9161009a565b6001600160a01b0381166100895760405162461bcd60e51b815260206004820152601a60248201527f496e76616c6964205553446520746f6b656e2061646472657373000000000000604482015260640160405180910390fd5b6001600160a01b03166080526100ca565b6000602082840312156100ac57600080fd5b81516001600160a01b03811681146100c357600080fd5b9392505050565b60805161102e6100ec600039600081816101db01526103df015261102e6000f3fe608060405234801561001057600080fd5b50600436106100cf5760003560e01c806393cb23591161008c578063c3f8a19411610066578063c3f8a19414610215578063cd34d1e91461021d578063ddc23a6a1461023d578063f6c552021461027657600080fd5b806393cb2359146101a257806395f40d5d146101b5578063bc14ebe7146101d657600080fd5b8063143054f1146100d457806316f81d2214610126578063244d6daa1461013b5780632d2535721461015f578063429895ac14610172578063701857961461018f575b600080fd5b6101106040518060400160405280601e81526020017f68747470733a2f2f6170702e736f6d6d656c6965722e66696e616e63652f000081525081565b60405161011d9190610b86565b60405180910390f35b610139610134366004610ba0565b610296565b005b61014e610149366004610bc2565b610522565b60405161011d959493929190610bdb565b61013961016d366004610bc2565b6105f6565b61018167016345785d8a000081565b60405190815260200161011d565b61018161019d366004610c38565b6106ac565b6101396101b0366004610c62565b6106dd565b6101c86101c3366004610cd4565b610874565b60405161011d929190610d32565b6101fd7f000000000000000000000000000000000000000000000000000000000000000081565b6040516001600160a01b03909116815260200161011d565b600054610181565b61018161022b366004610d92565b60026020526000908152604090205481565b60408051808201909152601e81527f68747470733a2f2f6170702e736f6d6d656c6965722e66696e616e63652f00006020820152610110565b610289610284366004610d92565b610ad4565b60405161011d9190610dad565b60005482106102e25760405162461bcd60e51b8152602060048201526013602482015272125b9d985b1a59081c995cdbdd5c98d9481251606a1b60448201526064015b60405180910390fd5b60008083815481106102f6576102f6610dc0565b600091825260209091206005909102018054909150336001600160a01b03909116036103645760405162461bcd60e51b815260206004820152601760248201527f43616e6e6f7420746970206f776e207265736f7572636500000000000000000060448201526064016102d9565b67016345785d8a00008210156103b15760405162461bcd60e51b815260206004820152601260248201527154697020616d6f756e7420746f6f206c6f7760701b60448201526064016102d9565b80546040516323b872dd60e01b81523360048201526001600160a01b039182166024820152604481018490527f0000000000000000000000000000000000000000000000000000000000000000909116906323b872dd906064016020604051808303816000875af115801561042a573d6000803e3d6000fd5b505050506040513d601f19601f8201168201806040525081019061044e9190610dd6565b6104915760405162461bcd60e51b81526020600482015260146024820152731554d119481d1c985b9cd9995c8819985a5b195960621b60448201526064016102d9565b818160020160008282546104a59190610e0e565b909155505080546001600160a01b0316600090815260026020526040812080548492906104d3908490610e0e565b909155505080546040518381526001600160a01b0390911690339085907f2b9091fc69a69aff684ffadcfb569fe2378f064463725b7fec1ac563ace3eb829060200160405180910390a4505050565b6000818154811061053257600080fd5b6000918252602090912060059091020180546001820180546001600160a01b0390921693509061056190610e27565b80601f016020809104026020016040519081016040528092919081815260200182805461058d90610e27565b80156105da5780601f106105af576101008083540402835291602001916105da565b820191906000526020600020905b8154815290600101906020018083116105bd57829003601f168201915b5050505050908060020154908060030154908060040154905085565b600054811061063d5760405162461bcd60e51b8152602060048201526013602482015272125b9d985b1a59081c995cdbdd5c98d9481251606a1b60448201526064016102d9565b600080828154811061065157610651610dc0565b9060005260206000209060050201905080600401600081548092919061067690610e61565b9091555050604051339083907f72362d58643208431862ece327052398f61f60e57898a7acc88547744d7a0a0d90600090a35050565b600160205281600052604060002081815481106106c857600080fd5b90600052602060002001600091509150505481565b8061072a5760405162461bcd60e51b815260206004820152601c60248201527f436f6e74656e7420686173682063616e6e6f7420626520656d7074790000000060448201526064016102d9565b60006040518060a00160405280336001600160a01b0316815260200184848080601f01602080910402602001604051908101604052809392919081815260200183838082843760009201829052509385525050506020808301829052426040840152606090920181905283546001808201865594825290829020835160059092020180546001600160a01b0319166001600160a01b039092169190911781559082015191929091908201906107df9082610edf565b5060408201516002820155606082015160038201556080909101516004909101556000805461081090600190610f9f565b336000818152600160208181526040808420805493840181558452922001839055519192509082907fec6f44a0415869a5b2e72602263dfea315b8f85ebbdbf912c0c1c04e2f23ceb6906108679087908790610fb2565b60405180910390a3505050565b606080600060648460ff161161088a578361088d565b60645b60ff1690508067ffffffffffffffff8111156108ab576108ab610e7a565b6040519080825280602002602001820160405280156108d4578160200160208202803683370190505b5092508067ffffffffffffffff8111156108f0576108f0610e7a565b604051908082528060200260200182016040528015610919578160200160208202803683370190505b50915060005b600054811015610acd57600080828154811061093d5761093d610dc0565b600091825260208083206005909202909101546001600160a01b031680835260029091526040822054909250905b84811015610ab7578186828151811061098657610986610dc0565b60200260200101511015610aa55760006109a1600187610f9f565b90505b81811115610a4d57866109b8600183610f9f565b815181106109c8576109c8610dc0565b60200260200101518782815181106109e2576109e2610dc0565b6020908102919091010152876109f9600183610f9f565b81518110610a0957610a09610dc0565b6020026020010151888281518110610a2357610a23610dc0565b6001600160a01b039092166020928302919091019091015280610a4581610fe1565b9150506109a4565b5081868281518110610a6157610a61610dc0565b60200260200101818152505082878281518110610a8057610a80610dc0565b60200260200101906001600160a01b031690816001600160a01b031681525050610ab7565b80610aaf81610e61565b91505061096b565b5050508080610ac590610e61565b91505061091f565b5050915091565b6001600160a01b038116600090815260016020908152604091829020805483518184028101840190945280845260609392830182828015610b3457602002820191906000526020600020905b815481526020019060010190808311610b20575b50505050509050919050565b6000815180845260005b81811015610b6657602081850181015186830182015201610b4a565b506000602082860101526020601f19601f83011685010191505092915050565b602081526000610b996020830184610b40565b9392505050565b60008060408385031215610bb357600080fd5b50508035926020909101359150565b600060208284031215610bd457600080fd5b5035919050565b6001600160a01b038616815260a060208201819052600090610bff90830187610b40565b604083019590955250606081019290925260809091015292915050565b80356001600160a01b0381168114610c3357600080fd5b919050565b60008060408385031215610c4b57600080fd5b610c5483610c1c565b946020939093013593505050565b60008060208385031215610c7557600080fd5b823567ffffffffffffffff80821115610c8d57600080fd5b818501915085601f830112610ca157600080fd5b813581811115610cb057600080fd5b866020828501011115610cc257600080fd5b60209290920196919550909350505050565b600060208284031215610ce657600080fd5b813560ff81168114610b9957600080fd5b600081518084526020808501945080840160005b83811015610d2757815187529582019590820190600101610d0b565b509495945050505050565b604080825283519082018190526000906020906060840190828701845b82811015610d745781516001600160a01b031684529284019290840190600101610d4f565b50505083810382850152610d888186610cf7565b9695505050505050565b600060208284031215610da457600080fd5b610b9982610c1c565b602081526000610b996020830184610cf7565b634e487b7160e01b600052603260045260246000fd5b600060208284031215610de857600080fd5b81518015158114610b9957600080fd5b634e487b7160e01b600052601160045260246000fd5b80820180821115610e2157610e21610df8565b92915050565b600181811c90821680610e3b57607f821691505b602082108103610e5b57634e487b7160e01b600052602260045260246000fd5b50919050565b600060018201610e7357610e73610df8565b5060010190565b634e487b7160e01b600052604160045260246000fd5b601f821115610eda57600081815260208120601f850160051c81016020861015610eb75750805b601f850160051c820191505b81811015610ed657828155600101610ec3565b5050505b505050565b815167ffffffffffffffff811115610ef957610ef9610e7a565b610f0d81610f078454610e27565b84610e90565b602080601f831160018114610f425760008415610f2a5750858301515b600019600386901b1c1916600185901b178555610ed6565b600085815260208120601f198616915b82811015610f7157888601518255948401946001909101908401610f52565b5085821015610f8f5787850151600019600388901b60f8161c191681555b5050505050600190811b01905550565b81810381811115610e2157610e21610df8565b60208152816020820152818360408301376000818301604090810191909152601f909201601f19160101919050565b600081610ff057610ff0610df8565b50600019019056fea264697066735822122041d0a6e32789798d8c16797139fb96ab2022a56c720cc60ee4c577865c90a80164736f6c63430008140033",
  "devdoc": {
    "kind": "dev",
    "methods": {
      "constructor": {
        "params": {
          "_usdeTokenAddress": "Address of the USDe token contract"
        }
      },
      "getTopContributors(uint8)": {
        "params": {
          "_limit": "Number of top contributors to return"
        },
        "returns": {
          "contributors": "Array of top contributor addresses",
          "tips": "Corresponding array of total tips received"
        }
      },
      "getUSDePurchaseLink()": {
        "returns": {
          "_0": "Link to purchase USDe tokens"
        }
      },
      "getUserResources(address)": {
        "params": {
          "_user": "Address of the user"
        },
        "returns": {
          "_0": "Array of resource IDs"
        }
      },
      "shareResource(string)": {
        "params": {
          "_contentHash": "IPFS hash or content identifier"
        }
      },
      "tipResource(uint256,uint256)": {
        "params": {
          "_amount": "Amount of USDe to tip",
          "_resourceId": "ID of the resource to tip"
        }
      },
      "viewResource(uint256)": {
        "params": {
          "_resourceId": "ID of the resource viewed"
        }
      }
    },
    "title": "TipHub - Developer Resource Sharing Platform MVP",
    "version": 1
  },
  "userdoc": {
    "events": {
      "ResourceShared(uint256,address,string)": {
        "notice": "Events for platform interactions"
      }
    },
    "kind": "user",
    "methods": {
      "MIN_TIP_AMOUNT()": {
        "notice": "Minimum tip amount"
      },
      "USDE_PURCHASE_LINK()": {
        "notice": "Platform purchase link for USDe"
      },
      "constructor": {
        "notice": "Constructor sets the USDe token address"
      },
      "getTopContributors(uint8)": {
        "notice": "Get top contributors based on tips received"
      },
      "getTotalResources()": {
        "notice": "Get total number of resources on the platform"
      },
      "getUSDePurchaseLink()": {
        "notice": "Retrieve purchase link for USDe"
      },
      "getUserResources(address)": {
        "notice": "Retrieve all resources shared by a user"
      },
      "resources(uint256)": {
        "notice": "Stores all resources"
      },
      "shareResource(string)": {
        "notice": "Share a new developer resource"
      },
      "tipResource(uint256,uint256)": {
        "notice": "Tip a resource using USDe"
      },
      "totalTipsReceived(address)": {
        "notice": "Tracks total tips received by each contributor"
      },
      "usdeToken()": {
        "notice": "USDe token contract interface"
      },
      "userResources(address,uint256)": {
        "notice": "Tracks resources per user"
      },
      "viewResource(uint256)": {
        "notice": "Record a resource view"
      }
    },
    "version": 1
  },
  "storageLayout": {
    "storage": [
      {
        "astId": 99,
        "contract": "contracts/TipHub.sol:TipHub",
        "label": "resources",
        "offset": 0,
        "slot": "0",
        "type": "t_array(t_struct(Resource)94_storage)dyn_storage"
      },
      {
        "astId": 105,
        "contract": "contracts/TipHub.sol:TipHub",
        "label": "userResources",
        "offset": 0,
        "slot": "1",
        "type": "t_mapping(t_address,t_array(t_uint256)dyn_storage)"
      },
      {
        "astId": 110,
        "contract": "contracts/TipHub.sol:TipHub",
        "label": "totalTipsReceived",
        "offset": 0,
        "slot": "2",
        "type": "t_mapping(t_address,t_uint256)"
      }
    ],
    "types": {
      "t_address": {
        "encoding": "inplace",
        "label": "address",
        "numberOfBytes": "20"
      },
      "t_array(t_struct(Resource)94_storage)dyn_storage": {
        "base": "t_struct(Resource)94_storage",
        "encoding": "dynamic_array",
        "label": "struct TipHub.Resource[]",
        "numberOfBytes": "32"
      },
      "t_array(t_uint256)dyn_storage": {
        "base": "t_uint256",
        "encoding": "dynamic_array",
        "label": "uint256[]",
        "numberOfBytes": "32"
      },
      "t_mapping(t_address,t_array(t_uint256)dyn_storage)": {
        "encoding": "mapping",
        "key": "t_address",
        "label": "mapping(address => uint256[])",
        "numberOfBytes": "32",
        "value": "t_array(t_uint256)dyn_storage"
      },
      "t_mapping(t_address,t_uint256)": {
        "encoding": "mapping",
        "key": "t_address",
        "label": "mapping(address => uint256)",
        "numberOfBytes": "32",
        "value": "t_uint256"
      },
      "t_string_storage": {
        "encoding": "bytes",
        "label": "string",
        "numberOfBytes": "32"
      },
      "t_struct(Resource)94_storage": {
        "encoding": "inplace",
        "label": "struct TipHub.Resource",
        "members": [
          {
            "astId": 85,
            "contract": "contracts/TipHub.sol:TipHub",
            "label": "contributor",
            "offset": 0,
            "slot": "0",
            "type": "t_address"
          },
          {
            "astId": 87,
            "contract": "contracts/TipHub.sol:TipHub",
            "label": "contentHash",
            "offset": 0,
            "slot": "1",
            "type": "t_string_storage"
          },
          {
            "astId": 89,
            "contract": "contracts/TipHub.sol:TipHub",
            "label": "tipsReceived",
            "offset": 0,
            "slot": "2",
            "type": "t_uint256"
          },
          {
            "astId": 91,
            "contract": "contracts/TipHub.sol:TipHub",
            "label": "createdAt",
            "offset": 0,
            "slot": "3",
            "type": "t_uint256"
          },
          {
            "astId": 93,
            "contract": "contracts/TipHub.sol:TipHub",
            "label": "viewCount",
            "offset": 0,
            "slot": "4",
            "type": "t_uint256"
          }
        ],
        "numberOfBytes": "160"
      },
      "t_uint256": {
        "encoding": "inplace",
        "label": "uint256",
        "numberOfBytes": "32"
      }
    }
  }
}