{
  "address": "0xC092864C42548e233e842c013c5e5b55c31cC71b",
  "abi": [
    {
      "inputs": [
        {
          "internalType": "address",
          "name": "_usdeToken",
          "type": "address"
        }
      ],
      "stateMutability": "nonpayable",
      "type": "constructor"
    },
    {
      "anonymous": false,
      "inputs": [
        {
          "indexed": true,
          "internalType": "uint256",
          "name": "resourceId",
          "type": "uint256"
        },
        {
          "indexed": true,
          "internalType": "address",
          "name": "contributor",
          "type": "address"
        },
        {
          "indexed": false,
          "internalType": "string",
          "name": "title",
          "type": "string"
        },
        {
          "indexed": false,
          "internalType": "string",
          "name": "description",
          "type": "string"
        },
        {
          "indexed": false,
          "internalType": "string",
          "name": "link",
          "type": "string"
        }
      ],
      "name": "ResourceAdded",
      "type": "event"
    },
    {
      "anonymous": false,
      "inputs": [
        {
          "indexed": true,
          "internalType": "uint256",
          "name": "resourceId",
          "type": "uint256"
        },
        {
          "indexed": true,
          "internalType": "address",
          "name": "tipper",
          "type": "address"
        },
        {
          "indexed": true,
          "internalType": "address",
          "name": "contributor",
          "type": "address"
        },
        {
          "indexed": false,
          "internalType": "uint256",
          "name": "amount",
          "type": "uint256"
        }
      ],
      "name": "TipSent",
      "type": "event"
    },
    {
      "inputs": [
        {
          "internalType": "string",
          "name": "_title",
          "type": "string"
        },
        {
          "internalType": "string",
          "name": "_description",
          "type": "string"
        },
        {
          "internalType": "string",
          "name": "_link",
          "type": "string"
        }
      ],
      "name": "addResource",
      "outputs": [],
      "stateMutability": "nonpayable",
      "type": "function"
    },
    {
      "inputs": [],
      "name": "getAllResources",
      "outputs": [
        {
          "components": [
            {
              "internalType": "string",
              "name": "title",
              "type": "string"
            },
            {
              "internalType": "string",
              "name": "description",
              "type": "string"
            },
            {
              "internalType": "string",
              "name": "link",
              "type": "string"
            },
            {
              "internalType": "address",
              "name": "contributor",
              "type": "address"
            },
            {
              "internalType": "uint256",
              "name": "tipsReceived",
              "type": "uint256"
            }
          ],
          "internalType": "struct TipHub.Resource[]",
          "name": "",
          "type": "tuple[]"
        }
      ],
      "stateMutability": "view",
      "type": "function"
    },
    {
      "inputs": [
        {
          "internalType": "uint256",
          "name": "_resourceId",
          "type": "uint256"
        }
      ],
      "name": "getResource",
      "outputs": [
        {
          "internalType": "string",
          "name": "",
          "type": "string"
        },
        {
          "internalType": "string",
          "name": "",
          "type": "string"
        },
        {
          "internalType": "string",
          "name": "",
          "type": "string"
        },
        {
          "internalType": "address",
          "name": "",
          "type": "address"
        },
        {
          "internalType": "uint256",
          "name": "",
          "type": "uint256"
        }
      ],
      "stateMutability": "view",
      "type": "function"
    },
    {
      "inputs": [
        {
          "internalType": "address",
          "name": "_user",
          "type": "address"
        }
      ],
      "name": "getUsdeTokenBalance",
      "outputs": [
        {
          "internalType": "uint256",
          "name": "",
          "type": "uint256"
        }
      ],
      "stateMutability": "view",
      "type": "function"
    },
    {
      "inputs": [
        {
          "internalType": "address",
          "name": "_user",
          "type": "address"
        }
      ],
      "name": "getUserContributions",
      "outputs": [
        {
          "internalType": "uint256[]",
          "name": "",
          "type": "uint256[]"
        }
      ],
      "stateMutability": "view",
      "type": "function"
    },
    {
      "inputs": [
        {
          "internalType": "uint256",
          "name": "",
          "type": "uint256"
        }
      ],
      "name": "resources",
      "outputs": [
        {
          "internalType": "string",
          "name": "title",
          "type": "string"
        },
        {
          "internalType": "string",
          "name": "description",
          "type": "string"
        },
        {
          "internalType": "string",
          "name": "link",
          "type": "string"
        },
        {
          "internalType": "address",
          "name": "contributor",
          "type": "address"
        },
        {
          "internalType": "uint256",
          "name": "tipsReceived",
          "type": "uint256"
        }
      ],
      "stateMutability": "view",
      "type": "function"
    },
    {
      "inputs": [
        {
          "internalType": "uint256",
          "name": "_resourceId",
          "type": "uint256"
        },
        {
          "internalType": "uint256",
          "name": "_amount",
          "type": "uint256"
        }
      ],
      "name": "tipResource",
      "outputs": [],
      "stateMutability": "nonpayable",
      "type": "function"
    },
    {
      "inputs": [
        {
          "internalType": "address",
          "name": "",
          "type": "address"
        }
      ],
      "name": "tipsGiven",
      "outputs": [
        {
          "internalType": "uint256",
          "name": "",
          "type": "uint256"
        }
      ],
      "stateMutability": "view",
      "type": "function"
    },
    {
      "inputs": [
        {
          "internalType": "address",
          "name": "",
          "type": "address"
        }
      ],
      "name": "tipsReceived",
      "outputs": [
        {
          "internalType": "uint256",
          "name": "",
          "type": "uint256"
        }
      ],
      "stateMutability": "view",
      "type": "function"
    },
    {
      "inputs": [],
      "name": "usdeToken",
      "outputs": [
        {
          "internalType": "contract IERC20",
          "name": "",
          "type": "address"
        }
      ],
      "stateMutability": "view",
      "type": "function"
    },
    {
      "inputs": [
        {
          "internalType": "address",
          "name": "",
          "type": "address"
        },
        {
          "internalType": "uint256",
          "name": "",
          "type": "uint256"
        }
      ],
      "name": "userContributions",
      "outputs": [
        {
          "internalType": "uint256",
          "name": "",
          "type": "uint256"
        }
      ],
      "stateMutability": "view",
      "type": "function"
    }
  ],
  "transactionHash": "0x5d7deb8363787e4ce7281511f105e30169325415b771faa50d39e7bdbfb7c417",
  "args": [
    "0x426E7d03f9803Dd11cb8616C65b99a3c0AfeA6dE"
  ],
  "numDeployments": 2,
  "solcInputHash": "0edef39c1953fc9e228a1c0b7b508f53",
  "bytecode": "0x608060405234801561001057600080fd5b506040516114f83803806114f883398101604081905261002f91610054565b600080546001600160a01b0319166001600160a01b0392909216919091179055610084565b60006020828403121561006657600080fd5b81516001600160a01b038116811461007d57600080fd5b9392505050565b611465806100936000396000f3fe608060405234801561001057600080fd5b50600436106100a95760003560e01c806335dd9a811161007157806335dd9a81146101445780634a33eab3146101575780637331fa9514610177578063baace33e1461018a578063bc14ebe71461019f578063e36465a3146101ca57600080fd5b806316f81d22146100ae57806319b7e5fb146100c35780631e8fca2d146100d65780632252dc7114610103578063244d6daa14610131575b600080fd5b6100c16100bc366004610eac565b6101ea565b005b6100c16100d1366004610f17565b61049a565b6100e96100e4366004610fb1565b6106fb565b6040516100fa959493929190611010565b60405180910390f35b610123610111366004611083565b60036020526000908152604090205481565b6040519081526020016100fa565b6100e961013f366004610fb1565b61097a565b610123610152366004611083565b610b62565b610123610165366004611083565b60026020526000908152604090205481565b6101236101853660046110a5565b610bd7565b610192610c08565b6040516100fa91906110cf565b6000546101b2906001600160a01b031681565b6040516001600160a01b0390911681526020016100fa565b6101dd6101d8366004611083565b610e40565b6040516100fa919061118d565b60015482106102365760405162461bcd60e51b8152602060048201526013602482015272125b9d985b1a59081c995cdbdd5c98d9481251606a1b60448201526064015b60405180910390fd5b600081116102925760405162461bcd60e51b8152602060048201526024808201527f54697020616d6f756e74206d7573742062652067726561746572207468616e206044820152637a65726f60e01b606482015260840161022d565b6000600183815481106102a7576102a76111d1565b600091825260209091206005909102016003810154909150336001600160a01b03909116036103185760405162461bcd60e51b815260206004820152601c60248201527f43616e6e6f742074697020796f7572206f776e207265736f7572636500000000604482015260640161022d565b60005460038201546040516323b872dd60e01b81523360048201526001600160a01b039182166024820152604481018590529116906323b872dd906064016020604051808303816000875af1158015610375573d6000803e3d6000fd5b505050506040513d601f19601f8201168201806040525081019061039991906111e7565b6103dd5760405162461bcd60e51b8152602060048201526015602482015274151bdad95b881d1c985b9cd9995c8819985a5b1959605a1b604482015260640161022d565b818160040160008282546103f1919061121f565b9091555050336000908152600260205260408120805484929061041590849061121f565b90915550506003818101546001600160a01b0316600090815260209190915260408120805484929061044890849061121f565b909155505060038101546040518381526001600160a01b0390911690339085907f471bff7634a7f1379732c73e55b97bcd606d0c2e2689abd6e0a729391ef3ba1b9060200160405180910390a4505050565b846104df5760405162461bcd60e51b81526020600482015260156024820152745469746c652063616e6e6f7420626520656d70747960581b604482015260640161022d565b8261052c5760405162461bcd60e51b815260206004820152601b60248201527f4465736372697074696f6e2063616e6e6f7420626520656d7074790000000000604482015260640161022d565b6040805160c06020601f8901819004028201810190925260a081018781526001928291908a908a9081908501838280828437600092019190915250505090825250604080516020601f890181900481028201810190925287815291810191908890889081908401838280828437600092019190915250505090825250604080516020601f8701819004810282018101909252858152918101919086908690819084018382808284376000920182905250938552505033602080850191909152604090930182905250835460018101855593815220815191926005020190819061061590826112d1565b506020820151600182019061062a90826112d1565b506040820151600282019061063f90826112d1565b5060608201516003820180546001600160a01b0319166001600160a01b0390921691909117905560809091015160049182015533600090815260209190915260409020600180546106909190611391565b815460018181018455600093845260209093200155805433916106b291611391565b7f9decb89567be2f2175d7566c08987306eccf594ee2327ad9cd7eaf6d20e70ce88888888888886040516106eb969594939291906113cd565b60405180910390a3505050505050565b6060806060600080600180549050861061074d5760405162461bcd60e51b8152602060048201526013602482015272125b9d985b1a59081c995cdbdd5c98d9481251606a1b604482015260640161022d565b600060018781548110610762576107626111d1565b90600052602060002090600502016040518060a001604052908160008201805461078b90611248565b80601f01602080910402602001604051908101604052809291908181526020018280546107b790611248565b80156108045780601f106107d957610100808354040283529160200191610804565b820191906000526020600020905b8154815290600101906020018083116107e757829003601f168201915b5050505050815260200160018201805461081d90611248565b80601f016020809104026020016040519081016040528092919081815260200182805461084990611248565b80156108965780601f1061086b57610100808354040283529160200191610896565b820191906000526020600020905b81548152906001019060200180831161087957829003601f168201915b505050505081526020016002820180546108af90611248565b80601f01602080910402602001604051908101604052809291908181526020018280546108db90611248565b80156109285780601f106108fd57610100808354040283529160200191610928565b820191906000526020600020905b81548152906001019060200180831161090b57829003601f168201915b505050918352505060038201546001600160a01b0316602080830191909152600490920154604091820152825191830151908301516060840151608090940151929b919a509850919650945092505050565b6001818154811061098a57600080fd5b90600052602060002090600502016000915090508060000180546109ad90611248565b80601f01602080910402602001604051908101604052809291908181526020018280546109d990611248565b8015610a265780601f106109fb57610100808354040283529160200191610a26565b820191906000526020600020905b815481529060010190602001808311610a0957829003601f168201915b505050505090806001018054610a3b90611248565b80601f0160208091040260200160405190810160405280929190818152602001828054610a6790611248565b8015610ab45780601f10610a8957610100808354040283529160200191610ab4565b820191906000526020600020905b815481529060010190602001808311610a9757829003601f168201915b505050505090806002018054610ac990611248565b80601f0160208091040260200160405190810160405280929190818152602001828054610af590611248565b8015610b425780601f10610b1757610100808354040283529160200191610b42565b820191906000526020600020905b815481529060010190602001808311610b2557829003601f168201915b50505050600383015460049093015491926001600160a01b031691905085565b600080546040516370a0823160e01b81526001600160a01b038481166004830152909116906370a0823190602401602060405180830381865afa158015610bad573d6000803e3d6000fd5b505050506040513d601f19601f82011682018060405250810190610bd19190611416565b92915050565b60046020528160005260406000208181548110610bf357600080fd5b90600052602060002001600091509150505481565b60606001805480602002602001604051908101604052809291908181526020016000905b82821015610e3757838290600052602060002090600502016040518060a0016040529081600082018054610c5f90611248565b80601f0160208091040260200160405190810160405280929190818152602001828054610c8b90611248565b8015610cd85780601f10610cad57610100808354040283529160200191610cd8565b820191906000526020600020905b815481529060010190602001808311610cbb57829003601f168201915b50505050508152602001600182018054610cf190611248565b80601f0160208091040260200160405190810160405280929190818152602001828054610d1d90611248565b8015610d6a5780601f10610d3f57610100808354040283529160200191610d6a565b820191906000526020600020905b815481529060010190602001808311610d4d57829003601f168201915b50505050508152602001600282018054610d8390611248565b80601f0160208091040260200160405190810160405280929190818152602001828054610daf90611248565b8015610dfc5780601f10610dd157610100808354040283529160200191610dfc565b820191906000526020600020905b815481529060010190602001808311610ddf57829003601f168201915b505050918352505060038201546001600160a01b03166020808301919091526004909201546040909101529082526001929092019101610c2c565b50505050905090565b6001600160a01b038116600090815260046020908152604091829020805483518184028101840190945280845260609392830182828015610ea057602002820191906000526020600020905b815481526020019060010190808311610e8c575b50505050509050919050565b60008060408385031215610ebf57600080fd5b50508035926020909101359150565b60008083601f840112610ee057600080fd5b50813567ffffffffffffffff811115610ef857600080fd5b602083019150836020828501011115610f1057600080fd5b9250929050565b60008060008060008060608789031215610f3057600080fd5b863567ffffffffffffffff80821115610f4857600080fd5b610f548a838b01610ece565b90985096506020890135915080821115610f6d57600080fd5b610f798a838b01610ece565b90965094506040890135915080821115610f9257600080fd5b50610f9f89828a01610ece565b979a9699509497509295939492505050565b600060208284031215610fc357600080fd5b5035919050565b6000815180845260005b81811015610ff057602081850181015186830182015201610fd4565b506000602082860101526020601f19601f83011685010191505092915050565b60a08152600061102360a0830188610fca565b82810360208401526110358188610fca565b905082810360408401526110498187610fca565b6001600160a01b039590951660608401525050608001529392505050565b80356001600160a01b038116811461107e57600080fd5b919050565b60006020828403121561109557600080fd5b61109e82611067565b9392505050565b600080604083850312156110b857600080fd5b6110c183611067565b946020939093013593505050565b60006020808301818452808551808352604092508286019150828160051b87010184880160005b8381101561117f57603f19898403018552815160a0815181865261111c82870182610fca565b915050888201518582038a8701526111348282610fca565b915050878201518582038987015261114c8282610fca565b6060848101516001600160a01b0316908801526080938401519390960192909252505093860193908601906001016110f6565b509098975050505050505050565b6020808252825182820181905260009190848201906040850190845b818110156111c5578351835292840192918401916001016111a9565b50909695505050505050565b634e487b7160e01b600052603260045260246000fd5b6000602082840312156111f957600080fd5b8151801515811461109e57600080fd5b634e487b7160e01b600052601160045260246000fd5b80820180821115610bd157610bd1611209565b634e487b7160e01b600052604160045260246000fd5b600181811c9082168061125c57607f821691505b60208210810361127c57634e487b7160e01b600052602260045260246000fd5b50919050565b601f8211156112cc57600081815260208120601f850160051c810160208610156112a95750805b601f850160051c820191505b818110156112c8578281556001016112b5565b5050505b505050565b815167ffffffffffffffff8111156112eb576112eb611232565b6112ff816112f98454611248565b84611282565b602080601f831160018114611334576000841561131c5750858301515b600019600386901b1c1916600185901b1785556112c8565b600085815260208120601f198616915b8281101561136357888601518255948401946001909101908401611344565b50858210156113815787850151600019600388901b60f8161c191681555b5050505050600190811b01905550565b81810381811115610bd157610bd1611209565b81835281816020850137506000828201602090810191909152601f909101601f19169091010190565b6060815260006113e160608301888a6113a4565b82810360208401526113f48187896113a4565b905082810360408401526114098185876113a4565b9998505050505050505050565b60006020828403121561142857600080fd5b505191905056fea2646970667358221220c26c5b12226bfbcc4c0ca45e444122f65a8adaa21c7f9af2d01fd3c59a3d37d464736f6c63430008140033",
  "devdoc": {
    "kind": "dev",
    "methods": {},
    "version": 1
  },
  "userdoc": {
    "kind": "user",
    "methods": {},
    "version": 1
  },
  "storageLayout": {
    "storage": [
      {
        "astId": 34,
        "contract": "contracts/TipHub.sol:TipHub",
        "label": "usdeToken",
        "offset": 0,
        "slot": "0",
        "type": "t_contract(IERC20)20"
      },
      {
        "astId": 38,
        "contract": "contracts/TipHub.sol:TipHub",
        "label": "resources",
        "offset": 0,
        "slot": "1",
        "type": "t_array(t_struct(Resource)31_storage)dyn_storage"
      },
      {
        "astId": 42,
        "contract": "contracts/TipHub.sol:TipHub",
        "label": "tipsGiven",
        "offset": 0,
        "slot": "2",
        "type": "t_mapping(t_address,t_uint256)"
      },
      {
        "astId": 46,
        "contract": "contracts/TipHub.sol:TipHub",
        "label": "tipsReceived",
        "offset": 0,
        "slot": "3",
        "type": "t_mapping(t_address,t_uint256)"
      },
      {
        "astId": 51,
        "contract": "contracts/TipHub.sol:TipHub",
        "label": "userContributions",
        "offset": 0,
        "slot": "4",
        "type": "t_mapping(t_address,t_array(t_uint256)dyn_storage)"
      }
    ],
    "types": {
      "t_address": {
        "encoding": "inplace",
        "label": "address",
        "numberOfBytes": "20"
      },
      "t_array(t_struct(Resource)31_storage)dyn_storage": {
        "base": "t_struct(Resource)31_storage",
        "encoding": "dynamic_array",
        "label": "struct TipHub.Resource[]",
        "numberOfBytes": "32"
      },
      "t_array(t_uint256)dyn_storage": {
        "base": "t_uint256",
        "encoding": "dynamic_array",
        "label": "uint256[]",
        "numberOfBytes": "32"
      },
      "t_contract(IERC20)20": {
        "encoding": "inplace",
        "label": "contract IERC20",
        "numberOfBytes": "20"
      },
      "t_mapping(t_address,t_array(t_uint256)dyn_storage)": {
        "encoding": "mapping",
        "key": "t_address",
        "label": "mapping(address => uint256[])",
        "numberOfBytes": "32",
        "value": "t_array(t_uint256)dyn_storage"
      },
      "t_mapping(t_address,t_uint256)": {
        "encoding": "mapping",
        "key": "t_address",
        "label": "mapping(address => uint256)",
        "numberOfBytes": "32",
        "value": "t_uint256"
      },
      "t_string_storage": {
        "encoding": "bytes",
        "label": "string",
        "numberOfBytes": "32"
      },
      "t_struct(Resource)31_storage": {
        "encoding": "inplace",
        "label": "struct TipHub.Resource",
        "members": [
          {
            "astId": 22,
            "contract": "contracts/TipHub.sol:TipHub",
            "label": "title",
            "offset": 0,
            "slot": "0",
            "type": "t_string_storage"
          },
          {
            "astId": 24,
            "contract": "contracts/TipHub.sol:TipHub",
            "label": "description",
            "offset": 0,
            "slot": "1",
            "type": "t_string_storage"
          },
          {
            "astId": 26,
            "contract": "contracts/TipHub.sol:TipHub",
            "label": "link",
            "offset": 0,
            "slot": "2",
            "type": "t_string_storage"
          },
          {
            "astId": 28,
            "contract": "contracts/TipHub.sol:TipHub",
            "label": "contributor",
            "offset": 0,
            "slot": "3",
            "type": "t_address"
          },
          {
            "astId": 30,
            "contract": "contracts/TipHub.sol:TipHub",
            "label": "tipsReceived",
            "offset": 0,
            "slot": "4",
            "type": "t_uint256"
          }
        ],
        "numberOfBytes": "160"
      },
      "t_uint256": {
        "encoding": "inplace",
        "label": "uint256",
        "numberOfBytes": "32"
      }
    }
  }
}