{
  "address": "0x2709132EC82DCae4B5c85034D76ac912237c8C13",
  "abi": [
    {
      "inputs": [
        {
          "internalType": "address",
          "name": "_usdeToken",
          "type": "address"
        }
      ],
      "stateMutability": "nonpayable",
      "type": "constructor"
    },
    {
      "anonymous": false,
      "inputs": [
        {
          "indexed": true,
          "internalType": "uint256",
          "name": "resourceId",
          "type": "uint256"
        },
        {
          "indexed": true,
          "internalType": "address",
          "name": "contributor",
          "type": "address"
        },
        {
          "indexed": false,
          "internalType": "string",
          "name": "title",
          "type": "string"
        },
        {
          "indexed": false,
          "internalType": "string",
          "name": "description",
          "type": "string"
        },
        {
          "indexed": false,
          "internalType": "string",
          "name": "link",
          "type": "string"
        }
      ],
      "name": "ResourceAdded",
      "type": "event"
    },
    {
      "anonymous": false,
      "inputs": [
        {
          "indexed": true,
          "internalType": "uint256",
          "name": "resourceId",
          "type": "uint256"
        },
        {
          "indexed": true,
          "internalType": "address",
          "name": "tipper",
          "type": "address"
        },
        {
          "indexed": true,
          "internalType": "address",
          "name": "contributor",
          "type": "address"
        },
        {
          "indexed": false,
          "internalType": "uint256",
          "name": "amount",
          "type": "uint256"
        }
      ],
      "name": "TipSent",
      "type": "event"
    },
    {
      "inputs": [
        {
          "internalType": "string",
          "name": "_title",
          "type": "string"
        },
        {
          "internalType": "string",
          "name": "_description",
          "type": "string"
        },
        {
          "internalType": "string",
          "name": "_link",
          "type": "string"
        }
      ],
      "name": "addResource",
      "outputs": [],
      "stateMutability": "nonpayable",
      "type": "function"
    },
    {
      "inputs": [],
      "name": "getAllResources",
      "outputs": [
        {
          "components": [
            {
              "internalType": "string",
              "name": "title",
              "type": "string"
            },
            {
              "internalType": "string",
              "name": "description",
              "type": "string"
            },
            {
              "internalType": "string",
              "name": "link",
              "type": "string"
            },
            {
              "internalType": "address",
              "name": "contributor",
              "type": "address"
            },
            {
              "internalType": "uint256",
              "name": "tipsReceived",
              "type": "uint256"
            }
          ],
          "internalType": "struct TipHub.Resource[]",
          "name": "",
          "type": "tuple[]"
        }
      ],
      "stateMutability": "view",
      "type": "function"
    },
    {
      "inputs": [
        {
          "internalType": "uint256",
          "name": "_resourceId",
          "type": "uint256"
        }
      ],
      "name": "getResource",
      "outputs": [
        {
          "internalType": "string",
          "name": "",
          "type": "string"
        },
        {
          "internalType": "string",
          "name": "",
          "type": "string"
        },
        {
          "internalType": "string",
          "name": "",
          "type": "string"
        },
        {
          "internalType": "address",
          "name": "",
          "type": "address"
        },
        {
          "internalType": "uint256",
          "name": "",
          "type": "uint256"
        }
      ],
      "stateMutability": "view",
      "type": "function"
    },
    {
      "inputs": [
        {
          "internalType": "address",
          "name": "_user",
          "type": "address"
        }
      ],
      "name": "getUserContributions",
      "outputs": [
        {
          "internalType": "uint256[]",
          "name": "",
          "type": "uint256[]"
        }
      ],
      "stateMutability": "view",
      "type": "function"
    },
    {
      "inputs": [
        {
          "internalType": "uint256",
          "name": "",
          "type": "uint256"
        }
      ],
      "name": "resources",
      "outputs": [
        {
          "internalType": "string",
          "name": "title",
          "type": "string"
        },
        {
          "internalType": "string",
          "name": "description",
          "type": "string"
        },
        {
          "internalType": "string",
          "name": "link",
          "type": "string"
        },
        {
          "internalType": "address",
          "name": "contributor",
          "type": "address"
        },
        {
          "internalType": "uint256",
          "name": "tipsReceived",
          "type": "uint256"
        }
      ],
      "stateMutability": "view",
      "type": "function"
    },
    {
      "inputs": [
        {
          "internalType": "uint256",
          "name": "_resourceId",
          "type": "uint256"
        },
        {
          "internalType": "uint256",
          "name": "_amount",
          "type": "uint256"
        }
      ],
      "name": "tipResource",
      "outputs": [],
      "stateMutability": "nonpayable",
      "type": "function"
    },
    {
      "inputs": [
        {
          "internalType": "address",
          "name": "",
          "type": "address"
        }
      ],
      "name": "tipsGiven",
      "outputs": [
        {
          "internalType": "uint256",
          "name": "",
          "type": "uint256"
        }
      ],
      "stateMutability": "view",
      "type": "function"
    },
    {
      "inputs": [
        {
          "internalType": "address",
          "name": "",
          "type": "address"
        }
      ],
      "name": "tipsReceived",
      "outputs": [
        {
          "internalType": "uint256",
          "name": "",
          "type": "uint256"
        }
      ],
      "stateMutability": "view",
      "type": "function"
    },
    {
      "inputs": [],
      "name": "usdeToken",
      "outputs": [
        {
          "internalType": "contract IERC20",
          "name": "",
          "type": "address"
        }
      ],
      "stateMutability": "view",
      "type": "function"
    },
    {
      "inputs": [
        {
          "internalType": "address",
          "name": "",
          "type": "address"
        },
        {
          "internalType": "uint256",
          "name": "",
          "type": "uint256"
        }
      ],
      "name": "userContributions",
      "outputs": [
        {
          "internalType": "uint256",
          "name": "",
          "type": "uint256"
        }
      ],
      "stateMutability": "view",
      "type": "function"
    }
  ],
  "transactionHash": "0xab10db34ca7445cd67a1db2e9db98cde2cf7b0e369542d2742d8a83fa10953e5",
  "args": [
    "0x426E7d03f9803Dd11cb8616C65b99a3c0AfeA6dE"
  ],
  "numDeployments": 1,
  "solcInputHash": "d284609c952027662df39276965c2c0e",
  "bytecode": "0x608060405234801561001057600080fd5b5060405161145238038061145283398101604081905261002f91610054565b600080546001600160a01b0319166001600160a01b0392909216919091179055610084565b60006020828403121561006657600080fd5b81516001600160a01b038116811461007d57600080fd5b9392505050565b6113bf806100936000396000f3fe608060405234801561001057600080fd5b506004361061009e5760003560e01c80634a33eab3116100665780634a33eab3146101395780637331fa9514610159578063baace33e1461016c578063bc14ebe714610181578063e36465a3146101ac57600080fd5b806316f81d22146100a357806319b7e5fb146100b85780631e8fca2d146100cb5780632252dc71146100f8578063244d6daa14610126575b600080fd5b6100b66100b1366004610e19565b6101cc565b005b6100b66100c6366004610e84565b61047c565b6100de6100d9366004610f1e565b6106dd565b6040516100ef959493929190610f7d565b60405180910390f35b610118610106366004610ff0565b60036020526000908152604090205481565b6040519081526020016100ef565b6100de610134366004610f1e565b61095c565b610118610147366004610ff0565b60026020526000908152604090205481565b610118610167366004611012565b610b44565b610174610b75565b6040516100ef919061103c565b600054610194906001600160a01b031681565b6040516001600160a01b0390911681526020016100ef565b6101bf6101ba366004610ff0565b610dad565b6040516100ef91906110fa565b60015482106102185760405162461bcd60e51b8152602060048201526013602482015272125b9d985b1a59081c995cdbdd5c98d9481251606a1b60448201526064015b60405180910390fd5b600081116102745760405162461bcd60e51b8152602060048201526024808201527f54697020616d6f756e74206d7573742062652067726561746572207468616e206044820152637a65726f60e01b606482015260840161020f565b6000600183815481106102895761028961113e565b600091825260209091206005909102016003810154909150336001600160a01b03909116036102fa5760405162461bcd60e51b815260206004820152601c60248201527f43616e6e6f742074697020796f7572206f776e207265736f7572636500000000604482015260640161020f565b60005460038201546040516323b872dd60e01b81523360048201526001600160a01b039182166024820152604481018590529116906323b872dd906064016020604051808303816000875af1158015610357573d6000803e3d6000fd5b505050506040513d601f19601f8201168201806040525081019061037b9190611154565b6103bf5760405162461bcd60e51b8152602060048201526015602482015274151bdad95b881d1c985b9cd9995c8819985a5b1959605a1b604482015260640161020f565b818160040160008282546103d3919061118c565b909155505033600090815260026020526040812080548492906103f790849061118c565b90915550506003818101546001600160a01b0316600090815260209190915260408120805484929061042a90849061118c565b909155505060038101546040518381526001600160a01b0390911690339085907f471bff7634a7f1379732c73e55b97bcd606d0c2e2689abd6e0a729391ef3ba1b9060200160405180910390a4505050565b846104c15760405162461bcd60e51b81526020600482015260156024820152745469746c652063616e6e6f7420626520656d70747960581b604482015260640161020f565b8261050e5760405162461bcd60e51b815260206004820152601b60248201527f4465736372697074696f6e2063616e6e6f7420626520656d7074790000000000604482015260640161020f565b6040805160c06020601f8901819004028201810190925260a081018781526001928291908a908a9081908501838280828437600092019190915250505090825250604080516020601f890181900481028201810190925287815291810191908890889081908401838280828437600092019190915250505090825250604080516020601f870181900481028201810190925285815291810191908690869081908401838280828437600092018290525093855250503360208085019190915260409093018290525083546001810185559381522081519192600502019081906105f79082611244565b506020820151600182019061060c9082611244565b50604082015160028201906106219082611244565b5060608201516003820180546001600160a01b0319166001600160a01b0390921691909117905560809091015160049182015533600090815260209190915260409020600180546106729190611304565b8154600181810184556000938452602090932001558054339161069491611304565b7f9decb89567be2f2175d7566c08987306eccf594ee2327ad9cd7eaf6d20e70ce88888888888886040516106cd96959493929190611340565b60405180910390a3505050505050565b6060806060600080600180549050861061072f5760405162461bcd60e51b8152602060048201526013602482015272125b9d985b1a59081c995cdbdd5c98d9481251606a1b604482015260640161020f565b6000600187815481106107445761074461113e565b90600052602060002090600502016040518060a001604052908160008201805461076d906111bb565b80601f0160208091040260200160405190810160405280929190818152602001828054610799906111bb565b80156107e65780601f106107bb576101008083540402835291602001916107e6565b820191906000526020600020905b8154815290600101906020018083116107c957829003601f168201915b505050505081526020016001820180546107ff906111bb565b80601f016020809104026020016040519081016040528092919081815260200182805461082b906111bb565b80156108785780601f1061084d57610100808354040283529160200191610878565b820191906000526020600020905b81548152906001019060200180831161085b57829003601f168201915b50505050508152602001600282018054610891906111bb565b80601f01602080910402602001604051908101604052809291908181526020018280546108bd906111bb565b801561090a5780601f106108df5761010080835404028352916020019161090a565b820191906000526020600020905b8154815290600101906020018083116108ed57829003601f168201915b505050918352505060038201546001600160a01b0316602080830191909152600490920154604091820152825191830151908301516060840151608090940151929b919a509850919650945092505050565b6001818154811061096c57600080fd5b906000526020600020906005020160009150905080600001805461098f906111bb565b80601f01602080910402602001604051908101604052809291908181526020018280546109bb906111bb565b8015610a085780601f106109dd57610100808354040283529160200191610a08565b820191906000526020600020905b8154815290600101906020018083116109eb57829003601f168201915b505050505090806001018054610a1d906111bb565b80601f0160208091040260200160405190810160405280929190818152602001828054610a49906111bb565b8015610a965780601f10610a6b57610100808354040283529160200191610a96565b820191906000526020600020905b815481529060010190602001808311610a7957829003601f168201915b505050505090806002018054610aab906111bb565b80601f0160208091040260200160405190810160405280929190818152602001828054610ad7906111bb565b8015610b245780601f10610af957610100808354040283529160200191610b24565b820191906000526020600020905b815481529060010190602001808311610b0757829003601f168201915b50505050600383015460049093015491926001600160a01b031691905085565b60046020528160005260406000208181548110610b6057600080fd5b90600052602060002001600091509150505481565b60606001805480602002602001604051908101604052809291908181526020016000905b82821015610da457838290600052602060002090600502016040518060a0016040529081600082018054610bcc906111bb565b80601f0160208091040260200160405190810160405280929190818152602001828054610bf8906111bb565b8015610c455780601f10610c1a57610100808354040283529160200191610c45565b820191906000526020600020905b815481529060010190602001808311610c2857829003601f168201915b50505050508152602001600182018054610c5e906111bb565b80601f0160208091040260200160405190810160405280929190818152602001828054610c8a906111bb565b8015610cd75780601f10610cac57610100808354040283529160200191610cd7565b820191906000526020600020905b815481529060010190602001808311610cba57829003601f168201915b50505050508152602001600282018054610cf0906111bb565b80601f0160208091040260200160405190810160405280929190818152602001828054610d1c906111bb565b8015610d695780601f10610d3e57610100808354040283529160200191610d69565b820191906000526020600020905b815481529060010190602001808311610d4c57829003601f168201915b505050918352505060038201546001600160a01b03166020808301919091526004909201546040909101529082526001929092019101610b99565b50505050905090565b6001600160a01b038116600090815260046020908152604091829020805483518184028101840190945280845260609392830182828015610e0d57602002820191906000526020600020905b815481526020019060010190808311610df9575b50505050509050919050565b60008060408385031215610e2c57600080fd5b50508035926020909101359150565b60008083601f840112610e4d57600080fd5b50813567ffffffffffffffff811115610e6557600080fd5b602083019150836020828501011115610e7d57600080fd5b9250929050565b60008060008060008060608789031215610e9d57600080fd5b863567ffffffffffffffff80821115610eb557600080fd5b610ec18a838b01610e3b565b90985096506020890135915080821115610eda57600080fd5b610ee68a838b01610e3b565b90965094506040890135915080821115610eff57600080fd5b50610f0c89828a01610e3b565b979a9699509497509295939492505050565b600060208284031215610f3057600080fd5b5035919050565b6000815180845260005b81811015610f5d57602081850181015186830182015201610f41565b506000602082860101526020601f19601f83011685010191505092915050565b60a081526000610f9060a0830188610f37565b8281036020840152610fa28188610f37565b90508281036040840152610fb68187610f37565b6001600160a01b039590951660608401525050608001529392505050565b80356001600160a01b0381168114610feb57600080fd5b919050565b60006020828403121561100257600080fd5b61100b82610fd4565b9392505050565b6000806040838503121561102557600080fd5b61102e83610fd4565b946020939093013593505050565b60006020808301818452808551808352604092508286019150828160051b87010184880160005b838110156110ec57603f19898403018552815160a0815181865261108982870182610f37565b915050888201518582038a8701526110a18282610f37565b91505087820151858203898701526110b98282610f37565b6060848101516001600160a01b031690880152608093840151939096019290925250509386019390860190600101611063565b509098975050505050505050565b6020808252825182820181905260009190848201906040850190845b8181101561113257835183529284019291840191600101611116565b50909695505050505050565b634e487b7160e01b600052603260045260246000fd5b60006020828403121561116657600080fd5b8151801515811461100b57600080fd5b634e487b7160e01b600052601160045260246000fd5b8082018082111561119f5761119f611176565b92915050565b634e487b7160e01b600052604160045260246000fd5b600181811c908216806111cf57607f821691505b6020821081036111ef57634e487b7160e01b600052602260045260246000fd5b50919050565b601f82111561123f57600081815260208120601f850160051c8101602086101561121c5750805b601f850160051c820191505b8181101561123b57828155600101611228565b5050505b505050565b815167ffffffffffffffff81111561125e5761125e6111a5565b6112728161126c84546111bb565b846111f5565b602080601f8311600181146112a7576000841561128f5750858301515b600019600386901b1c1916600185901b17855561123b565b600085815260208120601f198616915b828110156112d6578886015182559484019460019091019084016112b7565b50858210156112f45787850151600019600388901b60f8161c191681555b5050505050600190811b01905550565b8181038181111561119f5761119f611176565b81835281816020850137506000828201602090810191909152601f909101601f19169091010190565b60608152600061135460608301888a611317565b8281036020840152611367818789611317565b9050828103604084015261137c818587611317565b999850505050505050505056fea2646970667358221220729f0582912fd02da858c786b3249a90da9b26070361d47a2a001806fe52a1a364736f6c63430008140033",
  "devdoc": {
    "kind": "dev",
    "methods": {},
    "version": 1
  },
  "userdoc": {
    "kind": "user",
    "methods": {},
    "version": 1
  },
  "storageLayout": {
    "storage": [
      {
        "astId": 27,
        "contract": "contracts/TipHub.sol:TipHub",
        "label": "usdeToken",
        "offset": 0,
        "slot": "0",
        "type": "t_contract(IERC20)13"
      },
      {
        "astId": 31,
        "contract": "contracts/TipHub.sol:TipHub",
        "label": "resources",
        "offset": 0,
        "slot": "1",
        "type": "t_array(t_struct(Resource)24_storage)dyn_storage"
      },
      {
        "astId": 35,
        "contract": "contracts/TipHub.sol:TipHub",
        "label": "tipsGiven",
        "offset": 0,
        "slot": "2",
        "type": "t_mapping(t_address,t_uint256)"
      },
      {
        "astId": 39,
        "contract": "contracts/TipHub.sol:TipHub",
        "label": "tipsReceived",
        "offset": 0,
        "slot": "3",
        "type": "t_mapping(t_address,t_uint256)"
      },
      {
        "astId": 44,
        "contract": "contracts/TipHub.sol:TipHub",
        "label": "userContributions",
        "offset": 0,
        "slot": "4",
        "type": "t_mapping(t_address,t_array(t_uint256)dyn_storage)"
      }
    ],
    "types": {
      "t_address": {
        "encoding": "inplace",
        "label": "address",
        "numberOfBytes": "20"
      },
      "t_array(t_struct(Resource)24_storage)dyn_storage": {
        "base": "t_struct(Resource)24_storage",
        "encoding": "dynamic_array",
        "label": "struct TipHub.Resource[]",
        "numberOfBytes": "32"
      },
      "t_array(t_uint256)dyn_storage": {
        "base": "t_uint256",
        "encoding": "dynamic_array",
        "label": "uint256[]",
        "numberOfBytes": "32"
      },
      "t_contract(IERC20)13": {
        "encoding": "inplace",
        "label": "contract IERC20",
        "numberOfBytes": "20"
      },
      "t_mapping(t_address,t_array(t_uint256)dyn_storage)": {
        "encoding": "mapping",
        "key": "t_address",
        "label": "mapping(address => uint256[])",
        "numberOfBytes": "32",
        "value": "t_array(t_uint256)dyn_storage"
      },
      "t_mapping(t_address,t_uint256)": {
        "encoding": "mapping",
        "key": "t_address",
        "label": "mapping(address => uint256)",
        "numberOfBytes": "32",
        "value": "t_uint256"
      },
      "t_string_storage": {
        "encoding": "bytes",
        "label": "string",
        "numberOfBytes": "32"
      },
      "t_struct(Resource)24_storage": {
        "encoding": "inplace",
        "label": "struct TipHub.Resource",
        "members": [
          {
            "astId": 15,
            "contract": "contracts/TipHub.sol:TipHub",
            "label": "title",
            "offset": 0,
            "slot": "0",
            "type": "t_string_storage"
          },
          {
            "astId": 17,
            "contract": "contracts/TipHub.sol:TipHub",
            "label": "description",
            "offset": 0,
            "slot": "1",
            "type": "t_string_storage"
          },
          {
            "astId": 19,
            "contract": "contracts/TipHub.sol:TipHub",
            "label": "link",
            "offset": 0,
            "slot": "2",
            "type": "t_string_storage"
          },
          {
            "astId": 21,
            "contract": "contracts/TipHub.sol:TipHub",
            "label": "contributor",
            "offset": 0,
            "slot": "3",
            "type": "t_address"
          },
          {
            "astId": 23,
            "contract": "contracts/TipHub.sol:TipHub",
            "label": "tipsReceived",
            "offset": 0,
            "slot": "4",
            "type": "t_uint256"
          }
        ],
        "numberOfBytes": "160"
      },
      "t_uint256": {
        "encoding": "inplace",
        "label": "uint256",
        "numberOfBytes": "32"
      }
    }
  }
}